{
  "contractName": "Greeter",
  "abi": [
    {
      "constant": false,
      "inputs": [],
      "name": "kill",
      "outputs": [],
      "payable": false,
      "stateMutability": "nonpayable",
      "type": "function"
    },
    {
      "constant": true,
      "inputs": [],
      "name": "owner",
      "outputs": [
        {
          "name": "",
          "type": "address"
        }
      ],
      "payable": false,
      "stateMutability": "view",
      "type": "function"
    },
    {
      "constant": false,
      "inputs": [
        {
          "name": "newOwner",
          "type": "address"
        }
      ],
      "name": "transferOwnership",
      "outputs": [],
      "payable": false,
      "stateMutability": "nonpayable",
      "type": "function"
    },
    {
      "inputs": [
        {
          "name": "_greeting",
          "type": "string"
        }
      ],
      "payable": false,
      "stateMutability": "nonpayable",
      "type": "constructor"
    },
    {
      "anonymous": false,
      "inputs": [
        {
          "indexed": false,
          "name": "newGreeting",
          "type": "string"
        }
      ],
      "name": "GreetingChange",
      "type": "event"
    },
    {
      "constant": true,
      "inputs": [],
      "name": "greet",
      "outputs": [
        {
          "name": "",
          "type": "string"
        }
      ],
      "payable": false,
      "stateMutability": "view",
      "type": "function"
    },
    {
      "constant": false,
      "inputs": [
        {
          "name": "_newGreeting",
          "type": "string"
        }
      ],
      "name": "changeGreeting",
      "outputs": [],
      "payable": false,
      "stateMutability": "nonpayable",
      "type": "function"
    }
  ],
  "bytecode": "0x6060604052341561000f57600080fd5b60405161075b38038061075b83398101604052808051820191905050336000806101000a81548173ffffffffffffffffffffffffffffffffffffffff021916908373ffffffffffffffffffffffffffffffffffffffff1602179055508060019080519060200190610081929190610088565b505061012d565b828054600181600116156101000203166002900490600052602060002090601f016020900481019282601f106100c957805160ff19168380011785556100f7565b828001600101855582156100f7579182015b828111156100f65782518255916020019190600101906100db565b5b5090506101049190610108565b5090565b61012a91905b8082111561012657600081600090555060010161010e565b5090565b90565b61061f8061013c6000396000f30060606040526004361061006d576000357c0100000000000000000000000000000000000000000000000000000000900463ffffffff16806341c0e1b5146100725780638da5cb5b14610087578063cfae3217146100dc578063d28c25d41461016a578063f2fde38b146101c7575b600080fd5b341561007d57600080fd5b610085610200565b005b341561009257600080fd5b61009a610291565b604051808273ffffffffffffffffffffffffffffffffffffffff1673ffffffffffffffffffffffffffffffffffffffff16815260200191505060405180910390f35b34156100e757600080fd5b6100ef6102b6565b6040518080602001828103825283818151815260200191508051906020019080838360005b8381101561012f578082015181840152602081019050610114565b50505050905090810190601f16801561015c5780820380516001836020036101000a031916815260200191505b509250505060405180910390f35b341561017557600080fd5b6101c5600480803590602001908201803590602001908080601f0160208091040260200160405190810160405280939291908181526020018383808284378201915050505050509190505061035e565b005b34156101d257600080fd5b6101fe600480803573ffffffffffffffffffffffffffffffffffffffff1690602001909190505061046a565b005b6000809054906101000a900473ffffffffffffffffffffffffffffffffffffffff1673ffffffffffffffffffffffffffffffffffffffff163373ffffffffffffffffffffffffffffffffffffffff16141561028f576000809054906101000a900473ffffffffffffffffffffffffffffffffffffffff1673ffffffffffffffffffffffffffffffffffffffff16ff5b565b6000809054906101000a900473ffffffffffffffffffffffffffffffffffffffff1681565b6102be61053a565b60018054600181600116156101000203166002900480601f0160208091040260200160405190810160405280929190818152602001828054600181600116156101000203166002900480156103545780601f1061032957610100808354040283529160200191610354565b820191906000526020600020905b81548152906001019060200180831161033757829003601f168201915b5050505050905090565b6000809054906101000a900473ffffffffffffffffffffffffffffffffffffffff1673ffffffffffffffffffffffffffffffffffffffff163373ffffffffffffffffffffffffffffffffffffffff1614156104675780600190805190602001906103c992919061054e565b507fa9d7b44258c4d8b8c0b59b44c5496e7a245cc08f650f181e0b609bcff5bc03b7816040518080602001828103825283818151815260200191508051906020019080838360005b8381101561042c578082015181840152602081019050610411565b50505050905090810190601f1680156104595780820380516001836020036101000a031916815260200191505b509250505060405180910390a15b50565b6000809054906101000a900473ffffffffffffffffffffffffffffffffffffffff1673ffffffffffffffffffffffffffffffffffffffff163373ffffffffffffffffffffffffffffffffffffffff16141561053757600073ffffffffffffffffffffffffffffffffffffffff168173ffffffffffffffffffffffffffffffffffffffff1614151561053657806000806101000a81548173ffffffffffffffffffffffffffffffffffffffff021916908373ffffffffffffffffffffffffffffffffffffffff1602179055505b5b50565b602060405190810160405280600081525090565b828054600181600116156101000203166002900490600052602060002090601f016020900481019282601f1061058f57805160ff19168380011785556105bd565b828001600101855582156105bd579182015b828111156105bc5782518255916020019190600101906105a1565b5b5090506105ca91906105ce565b5090565b6105f091905b808211156105ec5760008160009055506001016105d4565b5090565b905600a165627a7a72305820b1e0a4a47ecbc320b4607c0f5eee6abff22ce50c784c3ff079897933f6e68d320029",
  "source": "pragma solidity ^0.4.4;\r\n\r\nimport \"./lifecycle/Killable.sol\";\r\n\r\ncontract Greeter is Killable {\r\n    string greeting;\r\n\r\n    event GreetingChange(string newGreeting);\r\n\r\n    function Greeter(string _greeting) public {\r\n        greeting = _greeting;\r\n    }\r\n\r\n    function greet() public constant returns (string) {\r\n        return greeting;\r\n    }\r\n\r\n    function changeGreeting(string _newGreeting) public onlyOwner {\r\n        greeting = _newGreeting;\r\n        GreetingChange(_newGreeting);\r\n    }\r\n}",
  "sourcePath": "C:\\Users\\Lennart\\Projects\\truffle\\my-app\\contracts\\Greeter.sol",
  "compiler": {
    "name": "solc",
    "version": "0.4.19+commit.c4cbbb05.Emscripten.clang"
  },
  "schemaVersion": "1.0.1",
  "updatedAt": "2018-02-06T20:45:24.278Z"
}